:100000000C942A000C9447000C9447000C94470071
:100010000C9447000C9447000C9447000C94470044
:100020000C9447000C9447000C94FD060C94300788
:100030000C9447000C9447000C9447000C94470024
:100040000C9447000C9447000C9447000C94470014
:100050000C94470011241FBECFE5D8E0DEBFCDBF12
:1000600010E0A0E6B0E0E0E5FDE102C005900D92F1
:10007000A236B107D9F710E0A2E6B0E001C01D92A8
:10008000AE36B107E1F70E94440E0C94A60E0C9414
:100090000000DF93CF9300D000D000D0CDB7DEB703
:1000A0008A836B834C8382E089838B81883008F05C
:1000B000EEC08A81282F30E03E832D838D819E8182
:1000C0008930910509F44AC02D813E812A303105DD
:1000D00034F48D819E818830910571F0D5C02D81D9
:1000E0003E812A30310509F46BC08D819E818B30B1
:1000F000910509F497C0C8C08C818823A9F4ABE3AB
:10010000B0E0EBE3F0E08081482F8B81282F30E0D6
:1001100081E090E0022E02C0880F991F0A94E2F756
:10012000809584238C93B5C08C818130A1F4ABE39E
:10013000B0E0EBE3F0E08081482F8B81282F30E0A6
:1001400081E090E0022E02C0880F991F0A94E2F726
:10015000842B8C939EC083E089839BC08C818823F1
:10016000A9F4A8E3B0E0E8E3F0E08081482F8B81B8
:10017000282F30E081E090E0022E02C0880F991F06
:100180000A94E2F7809584238C9383C08C8181301C
:10019000A1F4A8E3B0E0E8E3F0E08081482F8B8190
:1001A000282F30E081E090E0022E02C0880F991FD6
:1001B0000A94E2F7842B8C936CC083E0898369C036
:1001C0008C818823A9F4A5E3B0E0E5E3F0E0808129
:1001D000482F8B81282F30E081E090E0022E02C072
:1001E000880F991F0A94E2F7809584238C9351C05D
:1001F0008C818130A1F4A5E3B0E0E5E3F0E08081FB
:10020000482F8B81282F30E081E090E0022E02C041
:10021000880F991F0A94E2F7842B8C933AC083E0ED
:10022000898337C08C818823A9F4A2E3B0E0E2E39C
:10023000F0E08081482F8B81282F30E081E090E032
:10024000022E02C0880F991F0A94E2F7809584233A
:100250008C931FC08C818130A1F4A2E3B0E0E2E373
:10026000F0E08081482F8B81282F30E081E090E002
:10027000022E02C0880F991F0A94E2F7842B8C93F8
:1002800008C083E0898305C083E0898302C083E0DE
:100290008983898126960FB6F894DEBF0FBECDBF45
:1002A000CF91DF910895DF93CF9300D000D000D09D
:1002B000CDB7DEB78A836B834C8382E089838B81E1
:1002C000883008F0EEC08A81282F30E03E832D83ED
:1002D0008D819E818930910509F44AC02D813E812E
:1002E0002A30310534F48D819E818830910571F07A
:1002F000D5C02D813E812A30310509F46BC08D8136
:100300009E818B30910509F497C0C8C08C818130E3
:10031000A1F4AAE3B0E0EAE3F0E08081482F8B810A
:10032000282F30E081E090E0022E02C0880F991F54
:100330000A94E2F7842B8C93B6C08C818823A9F4AD
:10034000AAE3B0E0EAE3F0E08081482F8B81282F18
:1003500030E081E090E0022E02C0880F991F0A94DD
:10036000E2F7809584238C939EC083E089839BC0B1
:100370008C818130A1F4A7E3B0E0E7E3F0E0808175
:10038000482F8B81282F30E081E090E0022E02C0C0
:10039000880F991F0A94E2F7842B8C9384C08C8178
:1003A0008823A9F4A7E3B0E0E7E3F0E08081482FD9
:1003B0008B81282F30E081E090E0022E02C0880F70
:1003C000991F0A94E2F7809584238C936CC083E094
:1003D000898369C08C818130A1F4A4E3B0E0E4E3B7
:1003E000F0E08081482F8B81282F30E081E090E081
:1003F000022E02C0880F991F0A94E2F7842B8C9377
:1004000052C08C818823A9F4A4E3B0E0E4E3F0E0D7
:100410008081482F8B81282F30E081E090E0022EF0
:1004200002C0880F991F0A94E2F7809584238C9369
:100430003AC083E0898337C08C818130A1F4A1E385
:10044000B0E0E1E3F0E08081482F8B81282F30E09D
:1004500081E090E0022E02C0880F991F0A94E2F713
:10046000842B8C9320C08C818823A9F4A1E3B0E075
:10047000E1E3F0E08081482F8B81282F30E081E09C
:1004800090E0022E02C0880F991F0A94E2F780952F
:1004900084238C9308C083E0898305C083E089832B
:1004A00002C083E08983898126960FB6F894DEBF67
:1004B0000FBECDBFCF91DF910895DF93CF9300D0D2
:1004C00000D00F92CDB7DEB78A836B8382E0898339
:1004D0008A81282F30E03D832C838C819D81893057
:1004E0009105D9F02C813D812A30310534F48C817D
:1004F0009D818830910561F01FC02C813D812A309B
:10050000310581F08C819D818B30910581F014C083
:10051000EBE3F0E08B81808311C0E8E3F0E08B81B6
:1005200080830CC0E5E3F0E08B81808307C0E2E3C9
:10053000F0E08B81808302C083E0898389810F9002
:100540000F900F900F900F90CF91DF910895DF9350
:10055000CF9300D000D00F92CDB7DEB78A836B83E4
:1005600082E089838A81282F30E03D832C838C812F
:100570009D8189309105D9F02C813D812A3031054A
:1005800034F48C819D818830910561F01FC02C81ED
:100590003D812A30310581F08C819D818B30910520
:1005A00081F014C0EAE3F0E08B81808311C0E7E3BF
:1005B000F0E08B8180830CC0E4E3F0E08B818083EA
:1005C00007C0E1E3F0E08B81808302C083E0898390
:1005D00089810F900F900F900F900F90CF91DF9126
:1005E0000895DF93CF93CDB7DEB727970FB6F89472
:1005F000DEBF0FBECDBF8A836B835D834C8382E0F9
:1006000089838B81883008F074C08A81282F30E07C
:100610003F832E834E815F814930510559F18E8190
:100620009F818A30910534F42E813F812830310535
:1006300069F05CC04E815F814A30510579F18E814D
:100640009F818B30910509F43DC050C0E9E3F0E093
:100650008081282F30E08B81882F90E0A90102C093
:10066000559547958A95E2F7CA018170EC81FD8125
:10067000808341C0E6E3F0E08081282F30E08B8169
:10068000882F90E0A90102C0559547958A95E2F719
:10069000CA018170EC81FD8180832DC0E3E3F0E02D
:1006A0008081282F30E08B81882F90E0A90102C043
:1006B000559547958A95E2F7CA018170EC81FD81D5
:1006C000808319C0E0E3F0E08081282F30E08B8147
:1006D000882F90E0A90102C0559547958A95E2F7C9
:1006E000CA018170EC81FD81808305C083E089832C
:1006F00002C083E08983898127960FB6F894DEBF14
:100700000FBECDBFCF91DF910895DF93CF9300D07F
:1007100000D000D0CDB7DEB78A837C836B8382E0C4
:1007200089838A81282F30E03E832D838D819E81AD
:1007300089309105E9F02D813E812A30310534F46C
:100740008D819E818830910561F027C02D813E8189
:100750002A303105A1F08D819E818B309105B1F059
:100760001CC0E9E3F0E08081EB81FC81808317C04D
:10077000E6E3F0E08081EB81FC81808310C0E3E35D
:10078000F0E08081EB81FC81808309C0E0E3F0E050
:100790008081EB81FC81808302C083E08983898131
:1007A00026960FB6F894DEBF0FBECDBFCF91DF9176
:1007B0000895DF93CF9300D000D00F92CDB7DEB76E
:1007C0008A836B8382E089838B81883008F073C0D1
:1007D0008A81282F30E03D832C838C819D81893054
:1007E000910551F12C813D812A30310534F48C8101
:1007F0009D818830910561F05BC02C813D812A305C
:10080000310571F18C819D818B309105E9F150C0EA
:10081000ABE3B0E0EBE3F0E08081482F8B81282F41
:1008200030E081E090E0022E02C0880F991F0A9408
:10083000E2F784278C9341C0A8E3B0E0E8E3F0E05E
:100840008081482F8B81282F30E081E090E0022EBC
:1008500002C0880F991F0A94E2F784278C932DC059
:10086000A5E3B0E0E5E3F0E08081482F8B81282FFD
:1008700030E081E090E0022E02C0880F991F0A94B8
:10088000E2F784278C9319C0A2E3B0E0E2E3F0E042
:100890008081482F8B81282F30E081E090E0022E6C
:1008A00002C0880F991F0A94E2F784278C9305C031
:1008B00083E0898302C083E0898389810F900F9050
:1008C0000F900F900F90CF91DF910895DF93CF930A
:1008D000CDB7DEB7A0E5B0E0E0E5F0E08081846070
:1008E0008C93CF91DF910895DF93CF93CDB7DEB78F
:1008F000A0E5B0E0E0E5F0E080818B7F8C93CF91C4
:10090000DF910895DF93CF93CDB7DEB7A3E5B0E0D5
:10091000E3E5F0E080818F7B8C93A3E5B0E0E3E535
:10092000F0E08081877F8C93A3E5B0E0E3E5F0E021
:1009300080818F778C93A3E5B0E0E3E5F0E08081E0
:100940008F7D8C93A3E5B0E0E3E5F0E080818F7EBE
:100950008C93A3E5B0E0E3E5F0E080818B7F8C939E
:10096000A3E5B0E0E3E5F0E0808182608C93A3E54D
:10097000B0E0E3E5F0E080818E7F8C93CF91DF9152
:100980000895DF93CF9300D000D0CDB7DEB78A8330
:1009900081E089838A81282F30E03C832B838B81FF
:1009A0009C818930910509F46BC02B813C812A30F0
:1009B00031058CF48B819C8187309105A9F12B81C5
:1009C0003C81283031050CF045C08B819C818630FC
:1009D0009105A1F0ADC02B813C812B30310509F48C
:1009E0007BC08B819C818B3091050CF45FC02B8187
:1009F0003C812C30310509F485C09AC0A3E5B0E0F4
:100A0000E3E5F0E080818B7F8C93A3E5B0E0E3E544
:100A1000F0E080818D7F8C93A3E5B0E0E3E5F0E02A
:100A2000808181608C9385C0A3E5B0E0E3E5F0E0D0
:100A300080818B7F8C93A3E5B0E0E3E5F0E08081DB
:100A400082608C93A3E5B0E0E3E5F0E080818E7FE7
:100A50008C936FC0A3E5B0E0E3E5F0E080818B7F8D
:100A60008C93A3E5B0E0E3E5F0E0808182608C93B5
:100A7000A3E5B0E0E3E5F0E0808181608C9359C0AC
:100A8000A3E5B0E0E3E5F0E0808184608C93A3E52A
:100A9000B0E0E3E5F0E080818D7F8C93A3E5B0E0EA
:100AA000E3E5F0E080818E7F8C9343C0A3E5B0E066
:100AB000E3E5F0E0808184608C93A3E5B0E0E3E5BA
:100AC000F0E080818D7F8C93A3E5B0E0E3E5F0E07A
:100AD000808181608C932DC0A3E5B0E0E3E5F0E078
:100AE000808184608C93A3E5B0E0E3E5F0E0808151
:100AF00082608C93A3E5B0E0E3E5F0E080818E7F37
:100B00008C9317C0A3E5B0E0E3E5F0E0808184605A
:100B10008C93A3E5B0E0E3E5F0E0808182608C9304
:100B2000A3E5B0E0E3E5F0E0808181608C9301C053
:100B3000198289810F900F900F900F90CF91DF91C4
:100B40000895DF93CF93CDB7DEB7A3E5B0E0E3E53B
:100B5000F0E080818B7F8C93A3E5B0E0E3E5F0E0EB
:100B600080818D7F8C93A3E5B0E0E3E5F0E08081A8
:100B70008E7F8C93CF91DF910895DF93CF9300D038
:100B800000D0CDB7DEB78A8381E089838A81282FA0
:100B900030E03C832B838B819C818131910531F046
:100BA0002B813C812231310549F010C0A8E5B0E02D
:100BB000E8E5F0E0808181608C9309C0A8E5B0E0B1
:100BC000E8E5F0E0808182608C9301C01982898120
:100BD0000F900F900F900F90CF91DF910895DF93BA
:100BE000CF9300D000D000D0CDB7DEB78A837C830E
:100BF0006B8381E089838A81282F30E03E832D83B7
:100C00008D819E818131910531F02D813E8122318E
:100C1000310549F011C0E8E5F0E080818170EB8199
:100C2000FC8180830AC0E8E5F0E0808186958170D0
:100C3000EB81FC81808301C01982898126960FB6E1
:100C4000F894DEBF0FBECDBFCF91DF910895DF9343
:100C5000CF9300D000D0CDB7DEB78A8381E08983FF
:100C60008A81282F30E03C832B838B819C818131CA
:100C7000910531F02B813C812231310581F01EC07C
:100C8000A8E5B0E0E8E5F0E0808181608C93A9E51B
:100C9000B0E0E9E5F0E0808181608C9310C0A8E5C8
:100CA000B0E0E8E5F0E0808182608C93A9E5B0E0F7
:100CB000E9E5F0E0808182608C9301C0198289812E
:100CC0000F900F900F900F90CF91DF910895DF93C9
:100CD000CF9300D000D0CDB7DEB78A8381E089837F
:100CE0008A81282F30E03C832B838B819C8181314A
:100CF000910531F02B813C812231310549F010C042
:100D0000A9E5B0E0E9E5F0E080818E7F8C9309C031
:100D1000A9E5B0E0E9E5F0E080818D7F8C9301C02A
:100D2000198289810F900F900F900F90CF91DF91D2
:100D30000895DF93CF9300D00F92CDB7DEB78B83AA
:100D400081E08A838B8180958983E2E5F0E0898167
:100D500080838A810F900F900F90CF91DF9108953B
:100D6000DF93CF9300D0CDB7DEB78A8381E089834C
:100D7000ECE5F0E08A81808389810F900F90CF911C
:100D8000DF910895DF93CF9300D000D000D0CDB78E
:100D9000DEB78A837C836B8381E089838B819C812E
:100DA000009701F18A81282F30E03E832D838D81C9
:100DB0009E818131910531F02D813E8122313105B5
:100DC00041F00EC08B819C819093650080936400FC
:100DD0000AC08B819C81909363008093620003C062
:100DE000198201C01982898126960FB6F894DEBF58
:100DF0000FBECDBFCF91DF9108951F920F920FB616
:100E00000F9211242F933F934F935F936F937F9390
:100E10008F939F93AF93BF93EF93FF93DF93CF9302
:100E2000CDB7DEB78091620090916300009729F002
:100E3000E0916200F09163000995CF91DF91FF91FD
:100E4000EF91BF91AF919F918F917F916F915F9142
:100E50004F913F912F910F900FBE0F901F901895BB
:100E60001F920F920FB60F9211242F933F934F931F
:100E70005F936F937F938F939F93AF93BF93EF9302
:100E8000FF93DF93CF93CDB7DEB78091640090914D
:100E90006500009729F0E0916400F09165000995E4
:100EA000CF91DF91FF91EF91BF91AF919F918F9182
:100EB0007F916F915F914F913F912F910F900FBE56
:100EC0000F901F9018950F931F93DF93CF93CDB77B
:100ED000DEB7C954D0400FB6F894DEBF0FBECDBF09
:100EE0006B877C878D879E8783E1898380916100F2
:100EF000833109F0C4C11A821B821C821D821E82AA
:100F00001F821886198681E10E94670682E10E948D
:100F1000670687E00E94C10482E10E94BD058AEF56
:100F20000E94B0068FEF0E9499063AC19E01265F8B
:100F30003F4F82E1B9010E94EF058A85813009F0B7
:100F40002FC182E10E94BD050A810F8F1B8118A36A
:100F50002C8129A33D813AA34E814BA35F815CA3E1
:100F600068856DA379857EA381E08FA318A619A655
:100F70001AA61BA61CA61DA61EA69F8D0FA1900F2C
:100F80009FA711E01FAB2FA53F8D231708F01FAAC5
:100F900048A158A5450F48AB61E068AF78A988A182
:100FA000781708F018AE9FA908A9900F99AF11E023
:100FB0001AAF29AD38A9231708F01AAE48AD5AADBB
:100FC000452B48AF69AD68AB79A189A5780F79AB9E
:100FD00091E09BAF09A919A1011708F01BAE28AD3C
:100FE00039A9230F2CAF41E04DAF5CAD69A956176D
:100FF00008F01DAE7BAD8DAD782B7BAF9CAD99AB72
:101000000AA11AA5010F0AAB21E02EAF3AA94AA105
:10101000341708F01EAE5BAD6AA9560F5FAF71E0E2
:1010200021967FAF21978FAD9AA9891718F0219645
:101030001FAE21970EAD21961FAD2197012B0EAF4C
:101040002FAD2AAB3BA14BA5340F3BAB51E0229611
:101050005FAF22976BA97BA1671718F022961FAE8E
:1010600022978EAD9BA9890F23968FAF239701E01E
:1010700024960FAF249723961FAD23972BA9121701
:1010800018F024961FAE249722963FAD22972496FF
:101090004FAD2497342B22963FAF229723965FAD16
:1010A00023975BAB6CA17CA5670F6CAB81E02596A9
:1010B0008FAF25979CA90CA1901718F025961FAE0D
:1010C000259722961FAD22972CA9120F26961FAFA7
:1010D000269731E027963FAF279726964FAD269764
:1010E0005CA9451718F027961FAE279725966FAD78
:1010F000259727967FAD2797672B25966FAF259766
:1011000026968FAD26978CAB9DA10DA5900F9DAB1C
:1011100011E028961FAF28972DA93DA1231718F09D
:1011200028961FAE289725964FAD25975DA9450FA8
:1011300029964FAF299761E02A966FAF2A97299693
:101140007FAD29978DA9781718F02A961FAE2A9798
:1011500028969FAD28972A960FAD2A97902B289610
:101160009FAF289729961FAD29971DAB2EA13EA5AD
:10117000230F2EAB28968FAD28974EA9840F8EABE8
:101180002FA538A949A95AA96BA97CA98DA99EA9FF
:101190002A833B834C835D836E837F838887998713
:1011A0008B859C85AD85BE85880F991FAA1FBB1FA7
:1011B000880F991FAA1FBB1F8C019D0140E050E0C2
:1011C00060E070E00F8B188F298F3A8F4B8F5C8F08
:1011D0006D8F7E8F1A811F872B81288B3C81398BE5
:1011E0004D814A8B5E815B8B6F816C8B78857D8BAB
:1011F00089858E8B9E890E8D091708F442C01E8941
:101200002E8D121709F092CE3D894D8D4317C8F1EE
:101210005D896D8D561709F089CE7C898C8D871775
:1012200080F19C890C8D901709F080CE1B892B8D45
:10123000211738F13B894B8D341709F077CE5A8945
:101240006A8D6517F0F07A898A8D781709F06ECE6D
:101250009989098D0917A8F01989298D121709F0A4
:1012600065CE3889488D431760F05889688D5617C8
:1012700009F05CCE7F858F89871718F057CE84E1FF
:1012800089838981C75BDF4F0FB6F894DEBF0FBE3D
:10129000CDBFCF91DF911F910F910895DF93CF9331
:1012A000CDB7DEB72A970FB6F894DEBF0FBECDBF1D
:1012B0006F83788789879A8783E18983809161002A
:1012C0008331E9F51A821B821C821D8281E10E9412
:1012D000670682E10E94670687E00E94C10482E1FE
:1012E0000E94BD058AEF0E94B0068FEF0E9499060A
:1012F00018C09E012A5F3F4F82E1B9010E94EF05AD
:101300008E81813071F482E10E94BD058A819B81CA
:10131000AC81BD810196A11DB11D8A839B83AC83E5
:10132000BD832A813B814C815D818F819885A98510
:10133000BA8582179307A407B507D8F602C084E1DF
:10134000898389812A960FB6F894DEBF0FBECDBF80
:10135000CF91DF910895DF93CF9300D000D00F920B
:10136000CDB7DEB76A837B838C839D8383E18983DA
:1013700080916100833109F03FC080916000873126
:10138000D9F18A819B81AC81BD81880F991FAA1FE9
:10139000BB1F880F991FAA1FBB1F9C01AD0160E0F6
:1013A00070E080E090E02093660030936700409307
:1013B00068005093690060936A0070936B0080939B
:1013C0006C0090936D008AEF0E94B0068FEF0E9430
:1013D000990684E18093610082E10E94270627E05C
:1013E0003AE082E1B9010E94C20687E00E94C1048E
:1013F00087E18093600002C084E1898389810F9036
:101400000F900F900F900F90CF91DF910895DF9381
:10141000CF93CDB7DEB7AB970FB6F894DEBF0FBE54
:10142000CDBF80916100843109F017C12091660021
:1014300030916700409168005091690060916A00A6
:1014400070916B0080916C0090916D00E22FE32B06
:10145000E42BE52BE62BE72BE82BE92BEE2309F415
:10146000FCC0809166008983909167009A83809187
:1014700068008B83909169009C8380916A008D83C2
:1014800090916B009E8380916C008F8390916D0092
:1014900098878FEF89879FEF9A878FEF8B879FEFD2
:1014A0009C878FEF8D879FEF9E878FEF8F879FEFB2
:1014B000988B89819985890F898B81E0898F99899A
:1014C0008981981708F0198E9A818A85980F9A8BCE
:1014D00091E09A8F8A899A81891708F01A8E898DEE
:1014E0009A89890F8B8F81E08C8F9B8D8A899817C1
:1014F00008F01C8E9A8D8C8D982B9A8F9B8D9A8BD1
:101500008B819B85890F8B8B81E08D8F9B898B8154
:10151000981708F01D8E9A8D8B89980F9E8F91E0F9
:101520009F8F8E8D9B89891708F01F8E8D8D9F8DC3
:10153000892B8D8F8E8D8B8B9C818C85980F9C8BAE
:1015400091E098A38C899C81891708F018A28D8D51
:101550009C89890F89A381E08AA399A18C89981716
:1015600008F01AA298A18AA1982B98A399A19C8B04
:101570008D819D85890F8D8B81E08BA39D898D81C8
:10158000981708F01BA298A18D89980F9CA391E051
:101590009DA38CA19D89891708F01DA28BA19DA1F7
:1015A000892B8BA38CA18D8B9E818E85980F9E8B12
:1015B00091E09EA38E899E81891708F01EA28BA1BF
:1015C0009E89890F8FA381E088A79FA18E89981794
:1015D00008F018A69EA188A5982B9EA39FA19E8B7C
:1015E0008F819F85890F8F8B81E089A79F898F814C
:1015F000981708F019A69EA18F89980F9AA791E0D5
:101600009BA78AA59F89891708F01BA689A59BA57A
:10161000892B89A78AA58F8B98858889980F988FA1
:1016200089A5988D890F888F29893A894B895C898A
:101630006D897E898F89988D20936600309367002D
:10164000409368005093690060936A0070936B0048
:1016500080936C0090936D0006C083E180936100DD
:1016600086E180936000AB960FB6F894DEBF0FBEA4
:10167000CDBFCF91DF910895DF93CF93CDB7DEB784
:101680008AE062E041E00E9453018AE063E041E0C9
:101690000E9453018AE064E041E00E9453018AE025
:1016A00065E040E00E9453018AE066E040E00E946D
:1016B00053018AE067E040E00E9453010E947404F5
:1016C0008AE062E041E00E9449008AE063E041E094
:1016D0000E9449008AE064E041E00E9449008AE0FB
:1016E00065E041E00E9449008AE066E041E00E9436
:1016F00049008AE067E041E00E944900CF91DF9114
:101700000895DF93CF93CDB7DEB727970FB6F89440
:10171000DEBF0FBECDBF9F838E8382E38C8385E0C7
:101720008B8382E08A83198281E08D838E819F8101
:10173000009709F44AC0EE81FF81108282E08A831B
:101740003FC08AE06A8140E00E94490085E08B83C7
:101750002CC089818F5F89839E012B5F3F4F8AE078
:101760006B81A9010E94F1028D818823D9F49E0129
:101770002B5F3F4F8B81B9010E94F10B9E012B5FC4
:101780003F4F8AE06B81A9010E94F1028823B1F3E7
:101790008AE06A8141E00E944900EE81FF818981EF
:1017A000808306C08B818F5F8B838B81883088F22A
:1017B0008AE06A8141E00E9449008A818F5F8A83C2
:1017C0008A81853008F4BDCF02C083E38C838C818D
:1017D00027960FB6F894DEBF0FBECDBFCF91DF9135
:1017E0000895DF93CF9300D000D00F92CDB7DEB72E
:1017F0008B837D836C831A8219821BC02C813D816F
:101800008AE06B81A9010E94F1028C819D81009781
:1018100041F48A818F5F8A831982EC81FD81108275
:1018200008C089818F5F89831A82EC81FD8181E004
:1018300080838A81853018F489818530F8F20F9091
:101840000F900F900F900F90CF91DF910895DF933D
:10185000CF93CDB7DEB762E370E080E090E00E9406
:10186000630788E061E041E00E94530188E062E0A4
:1018700041E00E94530188E063E041E00E9453018F
:1018800088E064E041E00E94530188E065E041E0C7
:101890000E94530188E066E041E00E94530188E025
:1018A00067E041E00E94530183E060E040E00E9475
:1018B000BA0C6AE070E080E090E00E94630783E089
:1018C00060E040E00E94BA0C6AE070E080E090E0E6
:1018D0000E94630783E060E040E00E94BA0C6AE087
:1018E00070E080E090E00E94630782E060E040E00A
:1018F0000E94BA0C6AE070E080E090E00E9463070A
:1019000080E260E040E00E94BA0C6AE070E080E0B3
:1019100090E00E94630788E060E040E00E94BA0C1B
:101920006AE070E080E090E00E94630781E060E0A0
:1019300040E00E94BA0C6AE070E080E090E00E9413
:10194000630786E060E040E00E94BA0C6AE070E065
:1019500080E090E00E9463078CE060E040E00E943D
:10196000BA0C6AE070E080E090E00E946307CF91DB
:10197000DF910895DF93CF9300D00F92CDB7DEB7FC
:1019800089836A834B8388E063E041E00E944900D9
:1019900088E061E04A810E94490088E062E04B8172
:1019A0000E9449006AE070E080E090E00E946307D6
:1019B0008981982F991F9927991F88E067E0492FFF
:1019C0000E94490089818295869586958370982F1B
:1019D000917088E066E0492F0E94490089818295D4
:1019E00086958770982F917088E065E0492F0E9456
:1019F0004900898182958F70982F917088E064E00A
:101A0000492F0E94490088E063E040E00E944900BD
:101A10006AE070E080E090E00E94630788E063E0A5
:101A200041E00E9449008981869586958695982F88
:101A3000917088E067E0492F0E944900898186956E
:101A40008695982F917088E066E0492F0E944900A2
:101A500089818695982F917088E065E0492F0E94D2
:101A600049008981982F917088E064E0492F0E9495
:101A700049006AE070E080E090E00E94630788E03F
:101A800063E040E00E9449006AE070E080E090E09E
:101A90000E9463070F900F900F90CF91DF910895F0
:101AA000DF93CF930F92CDB7DEB78983898161E051
:101AB00040E00E94BA0C0F90CF91DF910895DF9320
:101AC000CF9300D00F92CDB7DEB79B838A83198264
:101AD00010C08981282F30E08A819B81FC01E20FB0
:101AE000F31F808161E040E00E94BA0C89818F5F22
:101AF00089838981282F30E08A819B81FC01E20F54
:101B0000F31F8081882329F70F900F900F90CF91BA
:101B1000DF910895DF93CF93CDB7DEB72E970FB641
:101B2000F894DEBF0FBECDBF6B877C878D879E8705
:101B30001A8619868B859C85AD85BE858D839E838F
:101B4000AF83B88781E090E0A0E0B0E089839A831A
:101B5000AB83BC832AC08A858F5F8A878A8582305F
:101B600090F089819A81AB81BC812AE030E040E02D
:101B700050E0BC01CD010E94650EDC01CB018983E0
:101B80009A83AB83BC838D819E81AF81B8852AE027
:101B900030E040E050E0BC01CD010E94840EDA014B
:101BA000C9018D839E83AF83B8878D819E81AF816C
:101BB000B8850097A105B10571F63CC08B859C8561
:101BC000AD85BE8529813A814B815C81BC01CD0107
:101BD0000E94840EDA01C90189878B859C85AD85B9
:101BE000BE8529813A814B815C81BC01CD010E9477
:101BF000840EDC01CB018B879C87AD87BE878981F2
:101C00009A81AB81BC812AE030E040E050E0BC0129
:101C1000CD010E94840EDA01C90189839A83AB83C6
:101C2000BC838985805D898789850E94500D8A855E
:101C300081508A878A85882309F62E960FB6F894F4
:101C4000DEBF0FBECDBFCF91DF910895DF93CF935D
:101C50000F92CDB7DEB789838981843131F484E175
:101C600060E040E00E94BA0C05C080E160E040E026
:101C70000E94BA0C6AE070E080E090E00E94630786
:101C80000F90CF91DF910895DF93CF930F92CDB74F
:101C9000DEB719820E943C0B0E94270CCE010196F0
:101CA0000E94810B89818823C9F389818A30B0F72A
:101CB0008981882F90E0A0E0B0E0BC01CD010E94B6
:101CC0008A0D80E10E94260EE9CF629FD001739FAA
:101CD000F001829FE00DF11D649FE00DF11D929FC8
:101CE000F00D839FF00D749FF00D659FF00D992707
:101CF000729FB00DE11DF91F639FB00DE11DF91F2B
:101D0000BD01CF0111240895A1E21A2EAA1BBB1B0D
:101D1000FD010DC0AA1FBB1FEE1FFF1FA217B307B7
:101D2000E407F50720F0A21BB30BE40BF50B661FCD
:101D3000771F881F991F1A9469F760957095809591
:101D400090959B01AC01BD01CF010895F894FFCFA0
:021D5000151369
:00000001FF
