:100000000C942A000C9447000C9447000C94470071
:100010000C9447000C9447000C9447000C94470044
:100020000C9447000C9447000C943D090C94700903
:100030000C9447000C9447000C9447000C94470024
:100040000C9456020C9447000C9447000C94470003
:100050000C94470011241FBECFE5D8E0DEBFCDBF12
:1000600010E0A0E6B0E0E8E5F1E202C005900D92F4
:10007000A037B107D9F710E0A0E7B0E001C01D92AA
:10008000A238B107E1F70E9447100C94AA100C9413
:100090000000DF93CF93CDB7DEB7A7E2B0E0E7E291
:1000A000F0E0808180688C93A7E2B0E0E7E2F0E0C6
:1000B000808180648C93A7E2B0E0E7E2F0E0808189
:1000C0008F7E8C93A7E2B0E0E7E2F0E08081877F4B
:1000D0008C93A7E2B0E0E7E2F0E080818B7F8C9325
:1000E000A7E2B0E0E7E2F0E080818D7F8C93A7E2A9
:1000F000B0E0E7E2F0E080818E7F8C93A6E2B0E092
:10010000E6E2F0E0808180688C93A6E2B0E0E6E26F
:10011000F0E08081877F8C93A6E2B0E0E6E2F0E039
:10012000808180628C93A0E5B0E0E0E5F0E0808122
:100130008F778C93A0E5B0E0E0E5F0E080818F7BE5
:100140008C93A0E5B0E0E0E5F0E080818F7D8C93BA
:10015000A6E2B0E0E6E2F0E0808184608C93A6E263
:10016000B0E0E6E2F0E0808182608C93A6E2B0E04D
:10017000E6E2F0E0808181608C93CF91DF91089579
:10018000DF93CF93CDB7DEB7A6E2B0E0E6E2F0E0D2
:10019000808180688C93A6E2B0E0E6E2F0E08081A6
:1001A00080648C93CF91DF910895DF93CF93CDB787
:1001B000DEB7A6E2B0E0E6E2F0E080818F778C93D4
:1001C000CF91DF910895DF93CF9300D0CDB7DEB705
:1001D0008A838EE289838A818E3108F4D0C08A8135
:1001E000863208F0CCC0A6E2B0E0E6E2F0E0808122
:1001F00080628C938A818E31B1F4A0E5B0E0E0E5B5
:10020000F0E080818F778C93A0E5B0E0E0E5F0E04E
:1002100080818F7B8C93A0E5B0E0E0E5F0E0808109
:100220008F7D8C93AEC08A818F31B1F4A0E5B0E0B0
:10023000E0E5F0E080818F778C93A0E5B0E0E0E529
:10024000F0E080818F7B8C93A0E5B0E0E0E5F0E00A
:10025000808180628C9395C08A818032B1F4A0E560
:10026000B0E0E0E5F0E080818F778C93A0E5B0E02E
:10027000E0E5F0E0808180648C93A0E5B0E0E0E50B
:10028000F0E080818F7D8C937CC08A818132B1F4D3
:10029000A0E5B0E0E0E5F0E080818F778C93A0E509
:1002A000B0E0E0E5F0E0808180648C93A0E5B0E010
:1002B000E0E5F0E0808180628C9363C08A818232C5
:1002C000B1F4A0E5B0E0E0E5F0E0808180688C93D7
:1002D000A0E5B0E0E0E5F0E080818F7B8C93A0E5C5
:1002E000B0E0E0E5F0E080818F7D8C934AC08A81A8
:1002F0008332B1F4A0E5B0E0E0E5F0E08081806811
:100300008C93A0E5B0E0E0E5F0E080818F7B8C93FA
:10031000A0E5B0E0E0E5F0E0808180628C9331C040
:100320008A818432B1F4A0E5B0E0E0E5F0E08081BC
:1003300080688C93A0E5B0E0E0E5F0E08081806427
:100340008C93A0E5B0E0E0E5F0E080818F7D8C93B8
:1003500018C0A0E5B0E0E0E5F0E0808180688C9313
:10036000A0E5B0E0E0E5F0E0808180648C93A0E55A
:10037000B0E0E0E5F0E0808180628C9302C08DE225
:10038000898389810F900F90CF91DF910895DF933A
:10039000CF93CDB7DEB7A6E2B0E0E6E2F0E0808131
:1003A0008F7D8C93CF91DF910895DF93CF93CDB75D
:1003B000DEB7A6E2B0E0E6E2F0E0808188608C93F0
:1003C000CF91DF910895DF93CF93CDB7DEB7A6E24B
:1003D000B0E0E6E2F0E08081877F8C93CF91DF91FF
:1003E0000895DF93CF9300D00F92CDB7DEB79B83F4
:1003F0008A838EE289838A819B81009751F0E6E2AD
:10040000F0E0808182958F708170EA81FB8180832A
:1004100002C08DE2898389810F900F900F90CF9158
:10042000DF910895DF93CF9300D00F92CDB7DEB761
:100430009B838A838EE289838A819B810097D9F08E
:10044000E4E2F0E08081882F90E0EA81FB819183F3
:100450008083EA81FB8120813181E5E2F0E08081C7
:10046000882F90E0982F8827822B932BEA81FB819D
:100470009183808302C08DE2898389810F900F90E0
:100480000F90CF91DF910895DF93CF9300D0CDB738
:10049000DEB79A83898389819A81909371008093D2
:1004A00070000F900F90CF91DF9108951F920F92DF
:1004B0000FB60F9211242F933F934F935F936F9337
:1004C0007F938F939F93AF93BF93EF93FF93DF93AC
:1004D000CF93CDB7DEB780917000909171000097F7
:1004E00029F0E0917000F09171000995CF91DF91B2
:1004F000FF91EF91BF91AF919F918F917F916F91FC
:100500005F914F913F912F910F900FBE0F901F90D1
:100510001895DF93CF9300D000D000D0CDB7DEB7D1
:100520008A836B834C8382E089838B81883008F0D7
:10053000EEC08A81282F30E03E832D838D819E81FD
:100540008930910509F44AC02D813E812A30310558
:1005500034F48D819E818830910571F0D5C02D8154
:100560003E812A30310509F46BC08D819E818B302C
:10057000910509F497C0C8C08C818823A9F4ABE326
:10058000B0E0EBE3F0E08081482F8B81282F30E052
:1005900081E090E0022E02C0880F991F0A94E2F7D2
:1005A000809584238C93B5C08C818130A1F4ABE31A
:1005B000B0E0EBE3F0E08081482F8B81282F30E022
:1005C00081E090E0022E02C0880F991F0A94E2F7A2
:1005D000842B8C939EC083E089839BC08C8188236D
:1005E000A9F4A8E3B0E0E8E3F0E08081482F8B8134
:1005F000282F30E081E090E0022E02C0880F991F82
:100600000A94E2F7809584238C9383C08C81813097
:10061000A1F4A8E3B0E0E8E3F0E08081482F8B810B
:10062000282F30E081E090E0022E02C0880F991F51
:100630000A94E2F7842B8C936CC083E0898369C0B1
:100640008C818823A9F4A5E3B0E0E5E3F0E08081A4
:10065000482F8B81282F30E081E090E0022E02C0ED
:10066000880F991F0A94E2F7809584238C9351C0D8
:100670008C818130A1F4A5E3B0E0E5E3F0E0808176
:10068000482F8B81282F30E081E090E0022E02C0BD
:10069000880F991F0A94E2F7842B8C933AC083E069
:1006A000898337C08C818823A9F4A2E3B0E0E2E318
:1006B000F0E08081482F8B81282F30E081E090E0AE
:1006C000022E02C0880F991F0A94E2F780958423B6
:1006D0008C931FC08C818130A1F4A2E3B0E0E2E3EF
:1006E000F0E08081482F8B81282F30E081E090E07E
:1006F000022E02C0880F991F0A94E2F7842B8C9374
:1007000008C083E0898305C083E0898302C083E059
:100710008983898126960FB6F894DEBF0FBECDBFC0
:10072000CF91DF910895DF93CF9300D000D000D018
:10073000CDB7DEB78A836B834C8382E089838B815C
:10074000883008F0EEC08A81282F30E03E832D8368
:100750008D819E818930910509F44AC02D813E81A9
:100760002A30310534F48D819E818830910571F0F5
:10077000D5C02D813E812A30310509F46BC08D81B1
:100780009E818B30910509F497C0C8C08C8181305F
:10079000A1F4AAE3B0E0EAE3F0E08081482F8B8186
:1007A000282F30E081E090E0022E02C0880F991FD0
:1007B0000A94E2F7842B8C93B6C08C818823A9F429
:1007C000AAE3B0E0EAE3F0E08081482F8B81282F94
:1007D00030E081E090E0022E02C0880F991F0A9459
:1007E000E2F7809584238C939EC083E089839BC02D
:1007F0008C818130A1F4A7E3B0E0E7E3F0E08081F1
:10080000482F8B81282F30E081E090E0022E02C03B
:10081000880F991F0A94E2F7842B8C9384C08C81F3
:100820008823A9F4A7E3B0E0E7E3F0E08081482F54
:100830008B81282F30E081E090E0022E02C0880FEB
:10084000991F0A94E2F7809584238C936CC083E00F
:10085000898369C08C818130A1F4A4E3B0E0E4E332
:10086000F0E08081482F8B81282F30E081E090E0FC
:10087000022E02C0880F991F0A94E2F7842B8C93F2
:1008800052C08C818823A9F4A4E3B0E0E4E3F0E053
:100890008081482F8B81282F30E081E090E0022E6C
:1008A00002C0880F991F0A94E2F7809584238C93E5
:1008B0003AC083E0898337C08C818130A1F4A1E301
:1008C000B0E0E1E3F0E08081482F8B81282F30E019
:1008D00081E090E0022E02C0880F991F0A94E2F78F
:1008E000842B8C9320C08C818823A9F4A1E3B0E0F1
:1008F000E1E3F0E08081482F8B81282F30E081E018
:1009000090E0022E02C0880F991F0A94E2F78095AA
:1009100084238C9308C083E0898305C083E08983A6
:1009200002C083E08983898126960FB6F894DEBFE2
:100930000FBECDBFCF91DF910895DF93CF9300D04D
:1009400000D00F92CDB7DEB78A836B8382E08983B4
:100950008A81282F30E03D832C838C819D818930D2
:100960009105D9F02C813D812A30310534F48C81F8
:100970009D818830910561F01FC02C813D812A3016
:10098000310581F08C819D818B30910581F014C0FF
:10099000EBE3F0E08B81808311C0E8E3F0E08B8132
:1009A00080830CC0E5E3F0E08B81808307C0E2E345
:1009B000F0E08B81808302C083E0898389810F907E
:1009C0000F900F900F900F90CF91DF910895DF93CC
:1009D000CF9300D000D00F92CDB7DEB78A836B8360
:1009E00082E089838A81282F30E03D832C838C81AB
:1009F0009D8189309105D9F02C813D812A303105C6
:100A000034F48C819D818830910561F01FC02C8168
:100A10003D812A30310581F08C819D818B3091059B
:100A200081F014C0EAE3F0E08B81808311C0E7E33A
:100A3000F0E08B8180830CC0E4E3F0E08B81808365
:100A400007C0E1E3F0E08B81808302C083E089830B
:100A500089810F900F900F900F900F90CF91DF91A1
:100A60000895DF93CF93CDB7DEB727970FB6F894ED
:100A7000DEBF0FBECDBF8A836B835D834C8382E074
:100A800089838B81883008F074C08A81282F30E0F8
:100A90003F832E834E815F814930510559F18E810C
:100AA0009F818A30910534F42E813F8128303105B1
:100AB00069F05CC04E815F814A30510579F18E81C9
:100AC0009F818B30910509F43DC050C0E9E3F0E00F
:100AD0008081282F30E08B81882F90E0A90102C00F
:100AE000559547958A95E2F7CA018170EC81FD81A1
:100AF000808341C0E6E3F0E08081282F30E08B81E5
:100B0000882F90E0A90102C0559547958A95E2F794
:100B1000CA018170EC81FD8180832DC0E3E3F0E0A8
:100B20008081282F30E08B81882F90E0A90102C0BE
:100B3000559547958A95E2F7CA018170EC81FD8150
:100B4000808319C0E0E3F0E08081282F30E08B81C2
:100B5000882F90E0A90102C0559547958A95E2F744
:100B6000CA018170EC81FD81808305C083E08983A7
:100B700002C083E08983898127960FB6F894DEBF8F
:100B80000FBECDBFCF91DF910895DF93CF9300D0FB
:100B900000D000D0CDB7DEB78A837C836B8382E040
:100BA00089838A81282F30E03E832D838D819E8129
:100BB00089309105E9F02D813E812A30310534F4E8
:100BC0008D819E818830910561F027C02D813E8105
:100BD0002A303105A1F08D819E818B309105B1F0D5
:100BE0001CC0E9E3F0E08081EB81FC81808317C0C9
:100BF000E6E3F0E08081EB81FC81808310C0E3E3D9
:100C0000F0E08081EB81FC81808309C0E0E3F0E0CB
:100C10008081EB81FC81808302C083E089838981AC
:100C200026960FB6F894DEBF0FBECDBFCF91DF91F1
:100C30000895DF93CF9300D000D00F92CDB7DEB7E9
:100C40008A836B8382E089838B81883008F073C04C
:100C50008A81282F30E03D832C838C819D818930CF
:100C6000910551F12C813D812A30310534F48C817C
:100C70009D818830910561F05BC02C813D812A30D7
:100C8000310571F18C819D818B309105E9F150C066
:100C9000ABE3B0E0EBE3F0E08081482F8B81282FBD
:100CA00030E081E090E0022E02C0880F991F0A9484
:100CB000E2F784278C9341C0A8E3B0E0E8E3F0E0DA
:100CC0008081482F8B81282F30E081E090E0022E38
:100CD00002C0880F991F0A94E2F784278C932DC0D5
:100CE000A5E3B0E0E5E3F0E08081482F8B81282F79
:100CF00030E081E090E0022E02C0880F991F0A9434
:100D0000E2F784278C9319C0A2E3B0E0E2E3F0E0BD
:100D10008081482F8B81282F30E081E090E0022EE7
:100D200002C0880F991F0A94E2F784278C9305C0AC
:100D300083E0898302C083E0898389810F900F90CB
:100D40000F900F900F90CF91DF910895DF93CF9385
:100D5000CDB7DEB7A0E5B0E0E0E5F0E080818460EB
:100D60008C93CF91DF910895DF93CF93CDB7DEB70A
:100D7000A0E5B0E0E0E5F0E080818B7F8C93CF913F
:100D8000DF910895DF93CF93CDB7DEB7A3E5B0E051
:100D9000E3E5F0E080818F7B8C93A3E5B0E0E3E5B1
:100DA000F0E08081877F8C93A3E5B0E0E3E5F0E09D
:100DB00080818F778C93A3E5B0E0E3E5F0E080815C
:100DC0008F7D8C93A3E5B0E0E3E5F0E080818F7E3A
:100DD0008C93A3E5B0E0E3E5F0E080818B7F8C931A
:100DE000A3E5B0E0E3E5F0E0808182608C93A3E5C9
:100DF000B0E0E3E5F0E080818E7F8C93CF91DF91CE
:100E00000895DF93CF9300D000D0CDB7DEB78A83AB
:100E100081E089838A81282F30E03C832B838B817A
:100E20009C818930910509F46BC02B813C812A306B
:100E300031058CF48B819C8187309105A9F12B8140
:100E40003C81283031050CF045C08B819C81863077
:100E50009105A1F0ADC02B813C812B30310509F407
:100E60007BC08B819C818B3091050CF45FC02B8102
:100E70003C812C30310509F485C09AC0A3E5B0E06F
:100E8000E3E5F0E080818B7F8C93A3E5B0E0E3E5C0
:100E9000F0E080818D7F8C93A3E5B0E0E3E5F0E0A6
:100EA000808181608C9385C0A3E5B0E0E3E5F0E04C
:100EB00080818B7F8C93A3E5B0E0E3E5F0E0808157
:100EC00082608C93A3E5B0E0E3E5F0E080818E7F63
:100ED0008C936FC0A3E5B0E0E3E5F0E080818B7F09
:100EE0008C93A3E5B0E0E3E5F0E0808182608C9331
:100EF000A3E5B0E0E3E5F0E0808181608C9359C028
:100F0000A3E5B0E0E3E5F0E0808184608C93A3E5A5
:100F1000B0E0E3E5F0E080818D7F8C93A3E5B0E065
:100F2000E3E5F0E080818E7F8C9343C0A3E5B0E0E1
:100F3000E3E5F0E0808184608C93A3E5B0E0E3E535
:100F4000F0E080818D7F8C93A3E5B0E0E3E5F0E0F5
:100F5000808181608C932DC0A3E5B0E0E3E5F0E0F3
:100F6000808184608C93A3E5B0E0E3E5F0E08081CC
:100F700082608C93A3E5B0E0E3E5F0E080818E7FB2
:100F80008C9317C0A3E5B0E0E3E5F0E080818460D6
:100F90008C93A3E5B0E0E3E5F0E0808182608C9380
:100FA000A3E5B0E0E3E5F0E0808181608C9301C0CF
:100FB000198289810F900F900F900F90CF91DF9140
:100FC0000895DF93CF93CDB7DEB7A3E5B0E0E3E5B7
:100FD000F0E080818B7F8C93A3E5B0E0E3E5F0E067
:100FE00080818D7F8C93A3E5B0E0E3E5F0E0808124
:100FF0008E7F8C93CF91DF910895DF93CF9300D0B4
:1010000000D0CDB7DEB78A8381E089838A81282F1B
:1010100030E03C832B838B819C818131910531F0C1
:101020002B813C812231310549F010C0A8E5B0E0A8
:10103000E8E5F0E0808181608C9309C0A8E5B0E02C
:10104000E8E5F0E0808182608C9301C0198289819B
:101050000F900F900F900F90CF91DF910895DF9335
:10106000CF9300D000D000D0CDB7DEB78A837C8389
:101070006B8381E089838A81282F30E03E832D8332
:101080008D819E818131910531F02D813E8122310A
:10109000310549F011C0E8E5F0E080818170EB8115
:1010A000FC8180830AC0E8E5F0E08081869581704C
:1010B000EB81FC81808301C01982898126960FB65D
:1010C000F894DEBF0FBECDBFCF91DF910895DF93BF
:1010D000CF9300D000D0CDB7DEB78A8381E089837B
:1010E0008A81282F30E03C832B838B819C81813146
:1010F000910531F02B813C812231310581F01EC0F8
:10110000A8E5B0E0E8E5F0E0808181608C93A9E596
:10111000B0E0E9E5F0E0808181608C9310C0A8E543
:10112000B0E0E8E5F0E0808182608C93A9E5B0E072
:10113000E9E5F0E0808182608C9301C019828981A9
:101140000F900F900F900F90CF91DF910895DF9344
:10115000CF9300D000D0CDB7DEB78A8381E08983FA
:101160008A81282F30E03C832B838B819C818131C5
:10117000910531F02B813C812231310549F010C0BD
:10118000A9E5B0E0E9E5F0E080818E7F8C9309C0AD
:10119000A9E5B0E0E9E5F0E080818D7F8C9301C0A6
:1011A000198289810F900F900F900F90CF91DF914E
:1011B0000895DF93CF9300D00F92CDB7DEB78B8326
:1011C00081E08A838B8180958983E2E5F0E08981E3
:1011D00080838A810F900F900F90CF91DF910895B7
:1011E000DF93CF9300D0CDB7DEB78A8381E08983C8
:1011F000ECE5F0E08A81808389810F900F90CF9198
:10120000DF910895DF93CF9300D000D000D0CDB709
:10121000DEB78A837C836B8381E089838B819C81A9
:10122000009701F18A81282F30E03E832D838D8144
:101230009E818131910531F02D813E812231310530
:1012400041F00EC08B819C81909375008093740057
:101250000AC08B819C81909373008093720003C0BD
:10126000198201C01982898126960FB6F894DEBFD3
:101270000FBECDBFCF91DF9108951F920F920FB691
:101280000F9211242F933F934F935F936F937F930C
:101290008F939F93AF93BF93EF93FF93DF93CF937E
:1012A000CDB7DEB78091720090917300009729F05E
:1012B000E0917200F09173000995CF91DF91FF9159
:1012C000EF91BF91AF919F918F917F916F915F91BE
:1012D0004F913F912F910F900FBE0F901F90189537
:1012E0001F920F920FB60F9211242F933F934F939B
:1012F0005F936F937F938F939F93AF93BF93EF937E
:10130000FF93DF93CF93CDB7DEB7809174009091B8
:101310007500009729F0E0917400F091750009952F
:10132000CF91DF91FF91EF91BF91AF919F918F91FD
:101330007F916F915F914F913F912F910F900FBED1
:101340000F901F9018950F931F93DF93CF93CDB7F6
:10135000DEB7C954D0400FB6F894DEBF0FBECDBF84
:101360006B877C878D879E8783E1898380916E0060
:10137000833109F0C4C11A821B821C821D821E8225
:101380001F821886198681E10E94A70882E10E94C7
:10139000A70887E00E94010782E10E94FD078AEF0B
:1013A0000E94F0088FEF0E94D9083AC19E01265F83
:1013B0003F4F82E1B9010E942F088A85813009F0F0
:1013C0002FC182E10E94FD070A810F8F1B8118A3A4
:1013D0002C8129A33D813AA34E814BA35F815CA35D
:1013E00068856DA379857EA381E08FA318A619A6D1
:1013F0001AA61BA61CA61DA61EA69F8D0FA1900FA8
:101400009FA711E01FAB2FA53F8D231708F01FAA40
:1014100048A158A5450F48AB61E068AF78A988A1FD
:10142000781708F018AE9FA908A9900F99AF11E09E
:101430001AAF29AD38A9231708F01AAE48AD5AAD36
:10144000452B48AF69AD68AB79A189A5780F79AB19
:1014500091E09BAF09A919A1011708F01BAE28ADB7
:1014600039A9230F2CAF41E04DAF5CAD69A95617E8
:1014700008F01DAE7BAD8DAD782B7BAF9CAD99ABED
:101480000AA11AA5010F0AAB21E02EAF3AA94AA181
:10149000341708F01EAE5BAD6AA9560F5FAF71E05E
:1014A00021967FAF21978FAD9AA9891718F02196C1
:1014B0001FAE21970EAD21961FAD2197012B0EAFC8
:1014C0002FAD2AAB3BA14BA5340F3BAB51E022968D
:1014D0005FAF22976BA97BA1671718F022961FAE0A
:1014E00022978EAD9BA9890F23968FAF239701E09A
:1014F00024960FAF249723961FAD23972BA912177D
:1015000018F024961FAE249722963FAD229724967A
:101510004FAD2497342B22963FAF229723965FAD91
:1015200023975BAB6CA17CA5670F6CAB81E0259624
:101530008FAF25979CA90CA1901718F025961FAE88
:10154000259722961FAD22972CA9120F26961FAF22
:10155000269731E027963FAF279726964FAD2697DF
:101560005CA9451718F027961FAE279725966FADF3
:10157000259727967FAD2797672B25966FAF2597E1
:1015800026968FAD26978CAB9DA10DA5900F9DAB98
:1015900011E028961FAF28972DA93DA1231718F019
:1015A00028961FAE289725964FAD25975DA9450F24
:1015B00029964FAF299761E02A966FAF2A9729960F
:1015C0007FAD29978DA9781718F02A961FAE2A9714
:1015D00028969FAD28972A960FAD2A97902B28968C
:1015E0009FAF289729961FAD29971DAB2EA13EA529
:1015F000230F2EAB28968FAD28974EA9840F8EAB64
:101600002FA538A949A95AA96BA97CA98DA99EA97A
:101610002A833B834C835D836E837F83888799878E
:101620008B859C85AD85BE85880F991FAA1FBB1F22
:10163000880F991FAA1FBB1F8C019D0140E050E03D
:1016400060E070E00F8B188F298F3A8F4B8F5C8F83
:101650006D8F7E8F1A811F872B81288B3C81398B60
:101660004D814A8B5E815B8B6F816C8B78857D8B26
:1016700089858E8B9E890E8D091708F442C01E89BC
:101680002E8D121709F092CE3D894D8D4317C8F16A
:101690005D896D8D561709F089CE7C898C8D8717F1
:1016A00080F19C890C8D901709F080CE1B892B8DC1
:1016B000211738F13B894B8D341709F077CE5A89C1
:1016C0006A8D6517F0F07A898A8D781709F06ECEE9
:1016D0009989098D0917A8F01989298D121709F020
:1016E00065CE3889488D431760F05889688D561744
:1016F00009F05CCE7F858F89871718F057CE84E17B
:1017000089838981C75BDF4F0FB6F894DEBF0FBEB8
:10171000CDBFCF91DF911F910F910895DF93CF93AC
:10172000CDB7DEB72A970FB6F894DEBF0FBECDBF98
:101730006F83788789879A8783E1898380916E0098
:101740008331E9F51A821B821C821D8281E10E948D
:10175000A70882E10E94A70887E00E94010782E1B2
:101760000E94FD078AEF0E94F0088FEF0E94D908BF
:1017700018C09E012A5F3F4F82E1B9010E942F08E5
:101780008E81813071F482E10E94FD078A819B8104
:10179000AC81BD810196A11DB11D8A839B83AC8361
:1017A000BD832A813B814C815D818F819885A9858C
:1017B000BA8582179307A407B507D8F602C084E15B
:1017C000898389812A960FB6F894DEBF0FBECDBFFC
:1017D000CF91DF910895DF93CF9300D000D00F9287
:1017E000CDB7DEB76A837B838C839D8383E1898356
:1017F00080916E00833109F03FC080916D00873188
:10180000D9F18A819B81AC81BD81880F991FAA1F64
:10181000BB1F880F991FAA1FBB1F9C01AD0160E071
:1018200070E080E090E02093760030937700409362
:1018300078005093790060937A0070937B008093D6
:101840007C0090937D008AEF0E94F0088FEF0E9449
:10185000D90884E180936E0082E10E94670827E442
:101860003CE082E1B9010E94020987E00E94010781
:1018700087E180936D0002C084E1898389810F90A4
:101880000F900F900F900F90CF91DF910895DF93FD
:10189000CF93CDB7DEB7AB970FB6F894DEBF0FBED0
:1018A000CDBF80916E00843109F017C12091760080
:1018B00030917700409178005091790060917A00E2
:1018C00070917B0080917C0090917D00E22FE32B52
:1018D000E42BE52BE62BE72BE82BE92BEE2309F491
:1018E000FCC0809176008983909177009A838091E3
:1018F00078008B83909179009C8380917A008D830E
:1019000090917B009E8380917C008F8390917D00DD
:1019100098878FEF89879FEF9A878FEF8B879FEF4D
:101920009C878FEF8D879FEF9E878FEF8F879FEF2D
:10193000988B89819985890F898B81E0898F998915
:101940008981981708F0198E9A818A85980F9A8B49
:1019500091E09A8F8A899A81891708F01A8E898D69
:101960009A89890F8B8F81E08C8F9B8D8A8998173C
:1019700008F01C8E9A8D8C8D982B9A8F9B8D9A8B4C
:101980008B819B85890F8B8B81E08D8F9B898B81D0
:10199000981708F01D8E9A8D8B89980F9E8F91E075
:1019A0009F8F8E8D9B89891708F01F8E8D8D9F8D3F
:1019B000892B8D8F8E8D8B8B9C818C85980F9C8B2A
:1019C00091E098A38C899C81891708F018A28D8DCD
:1019D0009C89890F89A381E08AA399A18C89981792
:1019E00008F01AA298A18AA1982B98A399A19C8B80
:1019F0008D819D85890F8D8B81E08BA39D898D8144
:101A0000981708F01BA298A18D89980F9CA391E0CC
:101A10009DA38CA19D89891708F01DA28BA19DA172
:101A2000892B8BA38CA18D8B9E818E85980F9E8B8D
:101A300091E09EA38E899E81891708F01EA28BA13A
:101A40009E89890F8FA381E088A79FA18E8998170F
:101A500008F018A69EA188A5982B9EA39FA19E8BF7
:101A60008F819F85890F8F8B81E089A79F898F81C7
:101A7000981708F019A69EA18F89980F9AA791E050
:101A80009BA78AA59F89891708F01BA689A59BA5F6
:101A9000892B89A78AA58F8B98858889980F988F1D
:101AA00089A5988D890F888F29893A894B895C8906
:101AB0006D897E898F89988D209376003093770089
:101AC000409378005093790060937A0070937B0084
:101AD00080937C0090937D0006C083E180936E002C
:101AE00086E180936D00AB960FB6F894DEBF0FBE13
:101AF000CDBFCF91DF910895DF93CF93CDB7DEB700
:101B000062E370E080E090E00E94A30988E061E079
:101B100041E00E94930388E062E041E00E94930369
:101B200088E063E041E00E94930388E064E041E0E4
:101B30000E94930388E065E041E00E94930388E0FF
:101B400066E041E00E94930388E067E041E00E9484
:101B5000930383E060E040E00E940F0E6AE070E0D3
:101B600080E090E00E94A30983E060E040E00E94F2
:101B70000F0E6AE070E080E090E00E94A30983E02D
:101B800060E040E00E940F0E6AE070E080E090E0CC
:101B90000E94A30982E060E040E00E940F0E6AE02C
:101BA00070E080E090E00E94A30980E260E040E005
:101BB0000E940F0E6AE070E080E090E00E94A309AE
:101BC00088E060E040E00E940F0E6AE070E080E094
:101BD00090E00E94A30981E060E040E00E940F0EC7
:101BE0006AE070E080E090E00E94A30986E060E097
:101BF00040E00E940F0E6AE070E080E090E00E94FA
:101C0000A3098CE060E040E00E940F0E6AE070E003
:101C100080E090E00E94A309CF91DF910895DF93C7
:101C2000CF9300D00F92CDB7DEB789836A834B8301
:101C300088E063E041E00E94890288E061E04A8137
:101C40000E94890288E062E04B810E9489026AE07A
:101C500070E080E090E00E94A3098981982F991F8D
:101C60009927991F88E067E0492F0E94890289819E
:101C70008295869586958370982F917088E066E0AE
:101C8000492F0E9489028981829586958770982FB5
:101C9000917088E065E0492F0E94890289818295D0
:101CA0008F70982F917088E064E0492F0E9489021C
:101CB00088E063E040E00E9489026AE070E080E032
:101CC00090E00E94A30988E063E041E00E9489025D
:101CD0008981869586958695982F917088E067E032
:101CE000492F0E948902898186958695982F917047
:101CF00088E066E0492F0E94890289818695982FA5
:101D0000917088E065E0492F0E9489028981982FAF
:101D1000917088E064E0492F0E9489026AE070E0D7
:101D200080E090E00E94A30988E063E040E00E9428
:101D300089026AE070E080E090E00E94A3090F90C1
:101D40000F900F90CF91DF910895DF93CF930F9273
:101D5000CDB7DEB78983898161E040E00E940F0E34
:101D60000F90CF91DF910895DF93CF9300D00F9222
:101D7000CDB7DEB79B838A83198210C08981282F53
:101D800030E08A819B81FC01E20FF31F808161E0DA
:101D900040E00E940F0E89818F5F89838981282FFF
:101DA00030E08A819B81FC01E20FF31F8081882350
:101DB00029F70F900F900F90CF91DF910895DF9347
:101DC000CF93CDB7DEB72E970FB6F894DEBF0FBE18
:101DD000CDBF6B877C878D879E871A8619868B85FA
:101DE0009C85AD85BE858D839E83AF83B88781E05A
:101DF00090E0A0E0B0E089839A83AB83BC832AC0E3
:101E00008A858F5F8A878A85823090F089819A815E
:101E1000AB81BC812AE030E040E050E0BC01CD0164
:101E20000E946910DC01CB0189839A83AB83BC8358
:101E30008D819E81AF81B8852AE030E040E050E09E
:101E4000BC01CD010E948810DA01C9018D839E83F7
:101E5000AF83B8878D819E81AF81B8850097A1053A
:101E6000B10571F63CC08B859C85AD85BE85298109
:101E70003A814B815C81BC01CD010E948810DA015E
:101E8000C90189878B859C85AD85BE8529813A816D
:101E90004B815C81BC01CD010E948810DC01CB012B
:101EA0008B879C87AD87BE8789819A81AB81BC81F6
:101EB0002AE030E040E050E0BC01CD010E948810F3
:101EC000DA01C90189839A83AB83BC838985805DEC
:101ED000898789850E94A50E8A8581508A878A858F
:101EE000882309F62E960FB6F894DEBF0FBECDBF3D
:101EF000CF91DF910895DF93CF930F92CDB7DEB7E7
:101F000089838981843131F484E160E040E00E947A
:101F10000F0E05C080E160E040E00E940F0E6AE015
:101F200070E080E090E00E94A3090F90CF91DF91D4
:101F30000895DF93CF93CDB7DEB788E060E040E04F
:101F40000E94930388E060E040E00E9489020E94C2
:101F500049000E94C000CF91DF910895DF93CF9395
:101F6000CDB7DEB728970FB6F894DEBF0FBECDBF52
:101F70009E838D831A828CE389831C821B828D81D0
:101F80009E81009709F477C0CE0102960E94F1016C
:101F90008A81813009F5CE0103960E9412028B815D
:101FA0009C81CC01A0E0B0E024EC39E040E050E0BE
:101FB000BC01CD010E946910DC01CB0120E137E2B8
:101FC00040E050E0BC01CD010E948810DA01C90157
:101FD00080937F008DE3898380918000882321F4A2
:101FE00080917F008093800080918100882321F47C
:101FF000809180008093810080917E00882321F46D
:102000008091810080937E0080918100282F30E0B4
:1020100080918000882F90E0280F391F80917E00EA
:10202000882F90E0280F391F80917F00882F90E043
:10203000820F931F98878F838F81988599232CF423
:102040008F819885039698878F838F819885959542
:10205000879595958795ED81FE818083809181009C
:1020600080937E00809180008093810080917F002A
:102070008093800002C08EE38983898128960FB601
:10208000F894DEBF0FBECDBFCF91DF910895DF93EF
:10209000CF930F92CDB7DEB719820E947C0D0E94BC
:1020A000990F80E690E00E94B40ECE0101960E9446
:1020B000AE0F8981882F90E0A0E0B0E0BC01CD0197
:1020C0000E94DF0E80E10E947B0F80E10E947B0F67
:1020D000ECCF629FD001739FF001829FE00DF11D54
:1020E000649FE00DF11D929FF00D839FF00D749F92
:1020F000F00D659FF00D9927729FB00DE11DF91F3E
:10210000639FB00DE11DF91FBD01CF01112408959A
:10211000A1E21A2EAA1BBB1BFD010DC0AA1FBB1FEB
:10212000EE1FFF1FA217B307E407F50720F0A21B5D
:10213000B30BE40BF50B661F771F881F991F1A94CA
:1021400069F760957095809590959B01AC01BD01F4
:08215000CF010895F894FFCFC0
:1021580054656D70206E6F77206973200015130029
:00000001FF
